{
    "contractName": "ComplianceConfiguration",
    "abi": [
        {
            "constant": false,
            "inputs": [
                {
                    "internalType": "address",
                    "name": "token",
                    "type": "address"
                },
                {
                    "internalType": "string",
                    "name": "configuation",
                    "type": "string"
                }
            ],
            "name": "setConfiguration",
            "outputs": [],
            "payable": false,
            "stateMutability": "nonpayable",
            "type": "function"
        },
        {
            "constant": true,
            "inputs": [
                {
                    "internalType": "address",
                    "name": "token",
                    "type": "address"
                }
            ],
            "name": "getConfiguration",
            "outputs": [
                {
                    "internalType": "string",
                    "name": "",
                    "type": "string"
                }
            ],
            "payable": false,
            "stateMutability": "view",
            "type": "function"
        }
    ],
    "bytecode": "608060405234801561001057600080fd5b50610333806100206000396000f3fe608060405234801561001057600080fd5b50600436106100365760003560e01c806376eba1221461003b578063c44b11f7146100f3575b600080fd5b6100f16004803603604081101561005157600080fd5b6001600160a01b03823516919081019060408101602082013564010000000081111561007c57600080fd5b82018360208201111561008e57600080fd5b803590602001918460018302840111640100000000831117156100b057600080fd5b91908080601f01602080910402602001604051908101604052809392919081815260200183838082843760009201919091525092955061018e945050505050565b005b6101196004803603602081101561010957600080fd5b50356001600160a01b03166101ba565b6040805160208082528351818301528351919283929083019185019080838360005b8381101561015357818101518382015260200161013b565b50505050905090810190601f1680156101805780820380516001836020036101000a031916815260200191505b509250505060405180910390f35b6001600160a01b03821660009081526020818152604090912082516101b592840190610263565b505050565b6001600160a01b0381166000908152602081815260409182902080548351601f60026000196101006001861615020190931692909204918201849004840281018401909452808452606093928301828280156102575780601f1061022c57610100808354040283529160200191610257565b820191906000526020600020905b81548152906001019060200180831161023a57829003601f168201915b50505050509050919050565b828054600181600116156101000203166002900490600052602060002090601f016020900481019282601f106102a457805160ff19168380011785556102d1565b828001600101855582156102d1579182015b828111156102d15782518255916020019190600101906102b6565b506102dd9291506102e1565b5090565b6102fb91905b808211156102dd57600081556001016102e7565b9056fea265627a7a72315820cd0601178b5cc2332e8fc79480df63579fb6deb05e0beb75198a2e941b6ff5e764736f6c634300050b0032",
    "sourcePath": "c:/mspace/dex/contracts/magic-contract/contracts/ComplianceConfiguration.sol",
    "compiler": {
        "name": "solc",
        "version": "0.5.11+commit.c082d0b4"
    },
    "functionHashes": {
        "getConfiguration(address)": "c44b11f7",
        "setConfiguration(address,string)": "76eba122"
    },
    "gasEstimates": {
        "creation": {
            "codeDepositCost": "163800",
            "executionCost": "208",
            "totalCost": "164008"
        },
        "external": {
            "getConfiguration(address)": "infinite",
            "setConfiguration(address,string)": "infinite"
        }
    }
}